{
  "_format": "hh-sol-artifact-1",
  "contractName": "StudentRegistry",
  "sourceName": "contracts/studentRegistry.sol",
  "abi": [
    {
      "inputs": [
        {
          "internalType": "uint256",
          "name": "_studentNumber",
          "type": "uint256"
        }
      ],
      "name": "addStudent",
      "outputs": [],
      "stateMutability": "nonpayable",
      "type": "function"
    },
    {
      "inputs": [],
      "name": "getGroupFromAddress",
      "outputs": [
        {
          "internalType": "uint8",
          "name": "_groupID",
          "type": "uint8"
        }
      ],
      "stateMutability": "view",
      "type": "function"
    },
    {
      "inputs": [],
      "name": "getScore",
      "outputs": [
        {
          "internalType": "uint256",
          "name": "score",
          "type": "uint256"
        }
      ],
      "stateMutability": "view",
      "type": "function"
    },
    {
      "inputs": [
        {
          "internalType": "uint256",
          "name": "_taskNumber",
          "type": "uint256"
        }
      ],
      "name": "getTaskScoreByTaskNumber",
      "outputs": [
        {
          "internalType": "uint256",
          "name": "_score",
          "type": "uint256"
        }
      ],
      "stateMutability": "view",
      "type": "function"
    },
    {
      "inputs": [
        {
          "internalType": "address",
          "name": "_conractAddress",
          "type": "address"
        }
      ],
      "name": "sendTask",
      "outputs": [],
      "stateMutability": "nonpayable",
      "type": "function"
    },
    {
      "inputs": [
        {
          "internalType": "address",
          "name": "",
          "type": "address"
        }
      ],
      "name": "studentAddress",
      "outputs": [
        {
          "internalType": "uint256",
          "name": "",
          "type": "uint256"
        }
      ],
      "stateMutability": "view",
      "type": "function"
    },
    {
      "inputs": [
        {
          "internalType": "address",
          "name": "",
          "type": "address"
        }
      ],
      "name": "studentScore",
      "outputs": [
        {
          "internalType": "uint8",
          "name": "",
          "type": "uint8"
        }
      ],
      "stateMutability": "view",
      "type": "function"
    },
    {
      "inputs": [
        {
          "internalType": "uint8",
          "name": "_groupIndex",
          "type": "uint8"
        }
      ],
      "name": "subscribeToGroup",
      "outputs": [],
      "stateMutability": "nonpayable",
      "type": "function"
    }
  ],
  "bytecode": "0x608060405234801561001057600080fd5b506104cf806100206000396000f3fe608060405234801561001057600080fd5b50600436106100885760003560e01c80637ed4c0ef1161005b5780637ed4c0ef146100ff578063a653d76a1461012f578063afd820671461015f578063c2edfa501461017d57610088565b8063060e39921461008d5780630cce974a146100a957806321cab356146100c5578063319e6577146100e1575b600080fd5b6100a760048036038101906100a2919061034f565b6101ad565b005b6100c360048036038101906100be91906103b2565b6101b0565b005b6100df60048036038101906100da9190610418565b61024e565b005b6100e9610251565b6040516100f69190610454565b60405180910390f35b6101196004803603810190610114919061034f565b610256565b6040516101269190610454565b60405180910390f35b610149600480360381019061014491906103b2565b610276565b604051610156919061047e565b60405180910390f35b61016761027d565b604051610174919061047e565b60405180910390f35b6101976004803603810190610192919061034f565b6102d4565b6040516101a4919061047e565b60405180910390f35b50565b806000803373ffffffffffffffffffffffffffffffffffffffff1673ffffffffffffffffffffffffffffffffffffffff1681526020019081526020016000208190555060018060003373ffffffffffffffffffffffffffffffffffffffff1673ffffffffffffffffffffffffffffffffffffffff16815260200190815260200160002060006101000a81548160ff021916908360ff16021790555050565b50565b600090565b60016020528060005260406000206000915054906101000a900460ff1681565b6000919050565b6000600160003373ffffffffffffffffffffffffffffffffffffffff1673ffffffffffffffffffffffffffffffffffffffff16815260200190815260200160002060009054906101000a900460ff1660ff16905090565b60006020528060005260406000206000915090505481565b600080fd5b600073ffffffffffffffffffffffffffffffffffffffff82169050919050565b600061031c826102f1565b9050919050565b61032c81610311565b811461033757600080fd5b50565b60008135905061034981610323565b92915050565b600060208284031215610365576103646102ec565b5b60006103738482850161033a565b91505092915050565b6000819050919050565b61038f8161037c565b811461039a57600080fd5b50565b6000813590506103ac81610386565b92915050565b6000602082840312156103c8576103c76102ec565b5b60006103d68482850161039d565b91505092915050565b600060ff82169050919050565b6103f5816103df565b811461040057600080fd5b50565b600081359050610412816103ec565b92915050565b60006020828403121561042e5761042d6102ec565b5b600061043c84828501610403565b91505092915050565b61044e816103df565b82525050565b60006020820190506104696000830184610445565b92915050565b6104788161037c565b82525050565b6000602082019050610493600083018461046f565b9291505056fea2646970667358221220d5135336415b64720e1b22393b8c5175e0a3911362f794dbcaf328c85a82fca564736f6c63430008090033",
  "linkReferences": {},
  "deployedLinkReferences": {}
}